:020000020000FC
:100000000C94DF000C9430000C9434000C943800F5
:040010000C943C0010
:040040000C944200DA
:040054000C944000C8
:1000600010E010930A01189511E010930A011895F9
:1000700011E010931001189511E010930B011895E1
:1000800071E018951FB66093020110912B01109337
:100090002C0110912A0110932B011091290110932A
:1000A0002A01109128011093290110912701109322
:1000B000280110912601109327011091250110931A
:1000C0002601109124011093250110912301109312
:1000D000240110912201109323011091210110930A
:1000E0002201109120011093210110911F01109302
:1000F000200110911E0110931F0110911D011093FA
:100100001E01109108011093090110910701173089
:1001100008F016E01093080160910A0160FF03C027
:1001200060910901161B10931D01112710930701FF
:10013000609102011FBE18950FEF00931401002774
:100140000093130108950FEF00931301002700930C
:100150001401089507B30F7807BB08B3006708BB05
:100160000895E89416B3107720902D01121511F41C
:100170009894089510932D012126989426FC1AC076
:1001800024FE089516FF0BC014FD04C0D5DF15FF33
:10019000DADF03C0D1DF15FDD6DF9894089514FD92
:1001A00004C0639515FF625003C0639515FD62504E
:1001B0001894089516FD02C06894089508950FEFED
:1001C0000DBF00E10EBF02E002B900E001BB08E88C
:1001D00006B903E007B9789420D6BCDF08E000BF79
:1001E00005E003BF06D607D600C009B70760077F42
:1001F00009BF07B70E7F07BF002700930B0108E078
:1002000000930D0101E0302E01E00F933F9200E3D7
:10021000302E06E03A94F1F73A940A95D9F73F90D8
:100220000F913A9491F70A9581F79BDF00911301A2
:100230000F3F31F400910D01083009F00BD0D4C00C
:10024000009114010F3F09F400910D01003009F0F5
:1002500066D0CAC000910D01039500930D01009175
:100260002B0100932C0100912A0100932B01009196
:10027000290100932A01009128010093290100918E
:100280002701009328010091260100932701009186
:10029000250100932601009124010093250100917E
:1002A0002301009324010091220100932301009176
:1002B000210100932201009120010093210100916E
:1002C0001F010093200100911E0100931F01009166
:1002D0001D0100931E0100911C0100931D0100915E
:1002E0001B0100931C0100911A0100931B01009156
:1002F000190100931A01009118010093190100914E
:100300001701009318010091160100931701009145
:100310001501009316010027009313010895009121
:100320000D010A9500930D0100911601009315012E
:100330000091170100931601009118010093170115
:10034000009119010093180100911A0100931901FD
:1003500000911B0100931A0100911C0100931B01E5
:1003600000911D0100931C0100911E0100931D01CD
:1003700000911F0100931E010091200100931F01B5
:10038000009121010093200100912201009321019D
:100390000091230100932201009124010093230185
:1003A000009125010093240100912601009325016D
:1003B0000091270100932601009128010093270155
:1003C000009129010093280100912A01009329013D
:1003D00000912B0100932A0100912C0100932B0125
:1003E0000027009314010895E0E0F4E060911D01FE
:1003F00060930C01603022F40FEF009311016195BE
:10040000633038F42AE0219320E0219320E0219307
:100410000FC0653038F42EE0219329E1219320E0CC
:10042000219306C020E021932AE0219320E021932C
:10043000009111010F3F21F46195002700931101F4
:100440000000603002F106E0061B41F020E021933D
:1004500020E0219320E021930A95C1F7603089F0D4
:1004600020E0219320E021932AE02193613049F09C
:100470006A9525E0219325E0219325E021936A9553
:10048000C1F7000020C0619506E0061B41F020E0A6
:10049000219320E0219320E021930A95C1F7603059
:1004A00089F020E021932AE0219320E0219361301C
:1004B00049F06A9525E0219325E0219325E02193D9
:1004C0006A95C1F7000060910C01603022F40FEFD3
:1004D000009311016195633038F42AE0219320E004
:1004E000219320E021930FC0653038F42EE0219352
:1004F00029E1219320E0219306C020E021932AE006
:10050000219320E02193009111010F3F21F4619587
:10051000002700931101000060911E0160930C01FF
:10052000603022F40FEF009311016195633038F4CD
:100530002AE0219320E0219320E021930FC0653031
:1005400038F42EE0219329E1219320E0219306C085
:1005500020E021932AE0219320E0219300911101D2
:100560000F3F21F4619500270093110100006030D6
:1005700002F106E0061B41F020E0219320E02193E8
:1005800020E021930A95C1F7603089F020E02193A3
:1005900020E021932AE02193613049F06A9525E01B
:1005A000219325E0219325E021936A95C1F700006E
:1005B00020C0619506E0061B41F020E0219320E079
:1005C000219320E021930A95C1F7603089F020E063
:1005D00021932AE0219320E02193613049F06A952C
:1005E00025E0219325E0219325E021936A95C1F729
:1005F000000060910C01603022F40FEF00931101B4
:100600006195633038F42AE0219320E0219320E0C3
:1006100021930FC0653038F42EE0219329E1219316
:1006200020E0219306C020E021932AE0219320E0DE
:100630002193009111010F3F21F461950027009350
:100640001101000060911F0160930C01603022F4E1
:100650000FEF009311016195633038F42AE0219384
:1006600020E0219320E021930FC0653038F42EE084
:10067000219329E1219320E0219306C020E02193DA
:100680002AE0219320E02193009111010F3F21F4F2
:1006900061950027009311010000603002F106E02F
:1006A000061B41F020E0219320E0219320E02193DC
:1006B0000A95C1F7603089F020E0219320E0219372
:1006C0002AE02193613049F06A9525E0219325E0E5
:1006D000219325E021936A95C1F7000020C0619520
:1006E00006E0061B41F020E0219320E0219320E06A
:1006F00021930A95C1F7603089F020E021932AE028
:10070000219320E02193613049F06A9525E02193FF
:1007100025E0219325E021936A95C1F700006091BF
:100720000C01603022F40FEF0093110161956330EA
:1007300038F42AE0219320E0219320E021930FC098
:10074000653038F42EE0219329E1219320E02193B4
:1007500006C020E021932AE0219320E0219300911C
:1007600011010F3F21F46195002700931101000052
:100770006091200160930C01603022F40FEF009330
:1007800011016195633038F42AE0219320E0219330
:1007900020E021930FC0653038F42EE0219329E149
:1007A000219320E0219306C020E021932AE02193A9
:1007B00020E02193009111010F3F21F46195002762
:1007C000009311010000603002F106E0061B41F0C9
:1007D00020E0219320E0219320E021930A95C1F7A6
:1007E000603089F020E0219320E021932AE02193DA
:1007F000613049F06A9525E0219325E0219325E0B9
:1008000021936A95C1F7000020C0619506E0061BA0
:1008100041F020E0219320E0219320E021930A95EC
:10082000C1F7603089F020E021932AE0219320E095
:100830002193613049F06A9525E0219325E02193C9
:1008400025E021936A95C1F7000060910C016030AA
:1008500022F40FEF009311016195633038F42AE020
:10086000219320E0219320E021930FC0653038F4DC
:100870002EE0219329E1219320E0219306C020E07E
:1008800021932AE0219320E02193009111010F3F51
:1008900021F461950027009311010000609121016E
:1008A00060930C01603022F40FEF00931101619509
:1008B000633038F42AE0219320E0219320E0219353
:1008C0000FC0653038F42EE0219329E1219320E018
:1008D000219306C020E021932AE0219320E0219378
:1008E000009111010F3F21F4619500270093110140
:1008F0000000603002F106E0061B41F020E0219389
:1009000020E0219320E021930A95C1F7603089F01F
:1009100020E0219320E021932AE02193613049F0E7
:100920006A9525E0219325E0219325E021936A959E
:10093000C1F7000020C0619506E0061B41F020E0F1
:10094000219320E0219320E021930A95C1F76030A4
:1009500089F020E021932AE0219320E02193613067
:1009600049F06A9525E0219325E0219325E0219324
:100970006A95C1F7000060910C01603022F40FEF1E
:10098000009311016195633038F42AE0219320E04F
:10099000219320E021930FC0653038F42EE021939D
:1009A00029E1219320E0219306C020E021932AE051
:1009B000219320E02193009111010F3F21F46195D3
:1009C00000270093110100006091220160930C0147
:1009D000603022F40FEF009311016195633038F419
:1009E0002AE0219320E0219320E021930FC065307D
:1009F00038F42EE0219329E1219320E0219306C0D1
:100A000020E021932AE0219320E02193009111011D
:100A10000F3F21F461950027009311010000603021
:100A200002F106E0061B41F020E0219320E0219333
:100A300020E021930A95C1F7603089F020E02193EE
:100A400020E021932AE02193613049F06A9525E066
:100A5000219325E0219325E021936A95C1F70000B9
:100A600020C0619506E0061B41F020E0219320E0C4
:100A7000219320E021930A95C1F7603089F020E0AE
:100A800021932AE0219320E02193613049F06A9577
:100A900025E0219325E0219325E021936A95C1F774
:100AA000000060910C01603022F40FEF00931101FF
:100AB0006195633038F42AE0219320E0219320E00F
:100AC00021930FC0653038F42EE0219329E1219362
:100AD00020E0219306C020E021932AE0219320E02A
:100AE0002193009111010F3F21F46195002700939C
:100AF000110100006091230160930C01603022F429
:100B00000FEF009311016195633038F42AE02193CF
:100B100020E0219320E021930FC0653038F42EE0CF
:100B2000219329E1219320E0219306C020E0219325
:100B30002AE0219320E02193009111010F3F21F43D
:100B400061950027009311010000603002F106E07A
:100B5000061B41F020E0219320E0219320E0219327
:100B60000A95C1F7603089F020E0219320E02193BD
:100B70002AE02193613049F06A9525E0219325E030
:100B8000219325E021936A95C1F7000020C061956B
:100B900006E0061B41F020E0219320E0219320E0B5
:100BA00021930A95C1F7603089F020E021932AE073
:100BB000219320E02193613049F06A9525E021934B
:100BC00025E0219325E021936A95C1F7000060910B
:100BD0000C01603022F40FEF009311016195633036
:100BE00038F42AE0219320E0219320E021930FC0E4
:100BF000653038F42EE0219329E1219320E0219300
:100C000006C020E021932AE0219320E02193009167
:100C100011010F3F21F4619500270093110100009D
:100C20006091240160930C01603022F40FEF009377
:100C300011016195633038F42AE0219320E021937B
:100C400020E021930FC0653038F42EE0219329E194
:100C5000219320E0219306C020E021932AE02193F4
:100C600020E02193009111010F3F21F461950027AD
:100C7000009311010000603002F106E0061B41F014
:100C800020E0219320E0219320E021930A95C1F7F1
:100C9000603089F020E0219320E021932AE0219325
:100CA000613049F06A9525E0219325E0219325E004
:100CB00021936A95C1F7000020C0619506E0061BEC
:100CC00041F020E0219320E0219320E021930A9538
:100CD000C1F7603089F020E021932AE0219320E0E1
:100CE0002193613049F06A9525E0219325E0219315
:100CF00025E021936A95C1F7000060910C016030F6
:100D000022F40FEF009311016195633038F42AE06B
:100D1000219320E0219320E021930FC0653038F427
:100D20002EE0219329E1219320E0219306C020E0C9
:100D300021932AE0219320E02193009111010F3F9C
:100D400021F46195002700931101000096C108E08D
:100D500027FD06C03324199A33B80000000004C0F0
:100D6000199A000000001998220F0A9589F708E0E7
:100D700037FD06C03324199A33B80000000004C0C0
:100D8000199A000000001998330F0A9589F708E0B6
:100D900047FD06C03324199A33B80000000004C090
:100DA000199A000000001998440F0A9589F70895D0
:100DB000199801E4302E01E03A94F1F73A940A953B
:100DC000D9F708953090008037FCFCCF03D0009312
:100DD0000080089500D0000008952D3061F12A3080
:100DE000A1F10091008007FDFCCFF4DF209300C04B
:100DF000089501E0E7CF02E0E5CF00E1E3CF04E1B1
:100E0000E1CF08E1DFCF0CE1DDCF0DE0DBCF0CE07F
:100E1000D9CF0EE0D7CF0CE0D5CF00EC05BF01E075
:100E2000D1DF06E0CFDF0CE0CDDF08E3CBDF0895B4
:100E3000022F0068C7CF0091008007FDFCCF00742F
:100E40000068C8DF0093008008952F9320E4F0DF4E
:100E50002F910895FF91EF91EE0FFF1FAF93BF9376
:100E6000C8953196002021F04AF0002D17D0F8CF18
:100E70003196F695E795BF91AF91099400FA002D50
:100E8000C895A02DA03610F0B2E001C0BB27319666
:100E9000043879F0053881F015C0E2CF2F93FF9325
:100EA000EF93E42DF52D202F0995EF91FF912F91D0
:100EB00008950C91F3DFD4CF0D91002309F4D0CF26
:100EC000EDDFFACF5F934F933F932F939F938F93D1
:100ED0007F936F932D913D914D915D9106FD06C0DD
:100EE00005FD0FC004FD10C003FD19C06AE0702F9E
:100EF00076957770729580E0902F92959370939588
:100F00001AC062E094E003C060E194E000C0702F7A
:100F10007695777009F478E0729580E00CC06AE00D
:100F2000C895802D3196C895702D3196902F959546
:100F30009370939500C0943081F0933051F09230CB
:100F400021F0332716F427FD3FEF442716F437FD31
:100F50004FEF552716F447FD5FEF09D06F917F9152
:100F60008F919F912F913F914F915F9179CFCF9228
:100F7000BF92AF929F928F92BB18AA249924882483
:100F800086F4E89455236AF46894772309F0705145
:100F900050954095309520950FEF201B300B400B5E
:100FA000500B882351F05595479537952795B79461
:100FB000A794979487948A95B1F77F9372957F70E1
:100FC0000EE20F9345D00C2D30D00F930027201741
:100FD00030074007500729F07723A1F37A9591F75E
:100FE00007C0772329F07A9519F000E257DFF9CF8F
:100FF00016F40DE253DF0F910E3211F04FDFFBCFED
:101000007F917F70772359F049DF282D392D4A2DA4
:101010005B2D11D00C2D09D041DF7A95D1F78F903F
:101020009F90AF90BF90CF9008950A3010F4005D6C
:101030000895095A0895CC2400E2889420FDC60E34
:10104000C79457954795379527950A95B1F7089511
:10105000CC2400E2221F331F441F551FCC1CC61A8C
:1010600008F4C60E0A95B1F7221F331F441F551FFF
:1010700050954095309520950895E0E0F4E000E427
:10108000002E219131914191F89461DE78940A9477
:10109000C1F78EDE222733274427552728E0009109
:1010A0000D01201B662777278827992760910A0161
:1010B0006030B1F40DEE402E06E0502ECBDE0D0D6B
:1010C000506C6F74203A205370656564200A536831
:1010D0006966743A20742DD012202020200015C09B
:1010E0000DEE402E06E0502EB5DE0D0D506C6F74E7
:1010F000203A204163636C72200A53686966743A2F
:1011000020742DD012202020200075DE00911001C7
:1011100000FF78C809B70877086009BF07B7016002
:1011200007BF0027009310010027009315010093CB
:101130001601009317010093180100931901009301
:101140001A0100931B0100931C0100931D010093E1
:101150001E0100931F0100932001009321010093C1
:1011600022010093230100932401009325010093A1
:101170002601009327010093280100932901009381
:101180002A0100932B0100932C0100910B0100FD1B
:101190002CC87727369A70FFFECF24B135B1303096
:1011A00009F411C000910F01013009F46DC01091D4
:1011B000070113951093070101E000930F0164C02C
:1011C000002700930F0100270093120100910F01E7
:1011D00000FDF6DF662777278827992760911D0194
:1011E000603022F4619501E0009312012227332739
:1011F0004427552720910A01203029F0009112013F
:10120000013069F116C00DEE402E06E0502E22DEB0
:101210000D0D53706565643A202020202020200A9F
:10122000D01620746F75722F73202020202020008C
:101230002BC00DEE402E06E0502E0CDE0D0D41634E
:1012400063656C65726174696F6E3A0A20D016200E
:10125000746F75722F7332202020200015C00DEEA0
:10126000402E06E0502EF6DD0D0D416363656C6582
:10127000726174696F6E3A0A2DD01620746F7572A0
:101280002F73322020202000E0E0F4E060911D0167
:1012900060930C01603022F40FEF0093110161950F
:1012A000633038F42AE0219320E0219320E0219359
:1012B0000FC0653038F42EE0219329E1219320E01E
:1012C000219306C020E021932AE0219320E021937E
:1012D000009111010F3F21F4619500270093110146
:1012E0000000603002F106E0061B41F020E021938F
:1012F00020E0219320E021930A95C1F7603089F026
:1013000020E0219320E021932AE02193613049F0ED
:101310006A9525E0219325E0219325E021936A95A4
:10132000C1F7000020C0619506E0061B41F020E0F7
:10133000219320E0219320E021930A95C1F76030AA
:1013400089F020E021932AE0219320E0219361306D
:1013500049F06A9525E0219325E0219325E021932A
:101360006A95C1F7000060910C01603022F40FEF24
:10137000009311016195633038F42AE0219320E055
:10138000219320E021930FC0653038F42EE02193A3
:1013900029E1219320E0219306C020E021932AE057
:1013A000219320E02193009111010F3F21F46195D9
:1013B000002700931101000060911E0160930C0151
:1013C000603022F40FEF009311016195633038F41F
:1013D0002AE0219320E0219320E021930FC0653083
:1013E00038F42EE0219329E1219320E0219306C0D7
:1013F00020E021932AE0219320E021930091110124
:101400000F3F21F461950027009311010000603027
:1014100002F106E0061B41F020E0219320E0219339
:1014200020E021930A95C1F7603089F020E02193F4
:1014300020E021932AE02193613049F06A9525E06C
:10144000219325E0219325E021936A95C1F70000BF
:1014500020C0619506E0061B41F020E0219320E0CA
:10146000219320E021930A95C1F7603089F020E0B4
:1014700021932AE0219320E02193613049F06A957D
:1014800025E0219325E0219325E021936A95C1F77A
:10149000000060910C01603022F40FEF0093110105
:1014A0006195633038F42AE0219320E0219320E015
:1014B00021930FC0653038F42EE0219329E1219368
:1014C00020E0219306C020E021932AE0219320E030
:1014D0002193009111010F3F21F4619500270093A2
:1014E0001101000060911F0160930C01603022F433
:1014F0000FEF009311016195633038F42AE02193D6
:1015000020E0219320E021930FC0653038F42EE0D5
:10151000219329E1219320E0219306C020E021932B
:101520002AE0219320E02193009111010F3F21F443
:1015300061950027009311010000603002F106E080
:10154000061B41F020E0219320E0219320E021932D
:101550000A95C1F7603089F020E0219320E02193C3
:101560002AE02193613049F06A9525E0219325E036
:10157000219325E021936A95C1F7000020C0619571
:1015800006E0061B41F020E0219320E0219320E0BB
:1015900021930A95C1F7603089F020E021932AE079
:1015A000219320E02193613049F06A9525E0219351
:1015B00025E0219325E021936A95C1F70000609111
:1015C0000C01603022F40FEF00931101619563303C
:1015D00038F42AE0219320E0219320E021930FC0EA
:1015E000653038F42EE0219329E1219320E0219306
:1015F00006C020E021932AE0219320E0219300916E
:1016000011010F3F21F461950027009311010000A3
:101610006091200160930C01603022F40FEF009381
:1016200011016195633038F42AE0219320E0219381
:1016300020E021930FC0653038F42EE0219329E19A
:10164000219320E0219306C020E021932AE02193FA
:1016500020E02193009111010F3F21F461950027B3
:10166000009311010000603002F106E0061B41F01A
:1016700020E0219320E0219320E021930A95C1F7F7
:10168000603089F020E0219320E021932AE021932B
:10169000613049F06A9525E0219325E0219325E00A
:1016A00021936A95C1F7000020C0619506E0061BF2
:1016B00041F020E0219320E0219320E021930A953E
:1016C000C1F7603089F020E021932AE0219320E0E7
:1016D0002193613049F06A9525E0219325E021931B
:1016E00025E021936A95C1F7000060910C016030FC
:1016F00022F40FEF009311016195633038F42AE072
:10170000219320E0219320E021930FC0653038F42D
:101710002EE0219329E1219320E0219306C020E0CF
:1017200021932AE0219320E02193009111010F3FA2
:1017300021F46195002700931101000060912101BF
:1017400060930C01603022F40FEF0093110161955A
:10175000633038F42AE0219320E0219320E02193A4
:101760000FC0653038F42EE0219329E1219320E069
:10177000219306C020E021932AE0219320E02193C9
:10178000009111010F3F21F4619500270093110191
:101790000000603002F106E0061B41F020E02193DA
:1017A00020E0219320E021930A95C1F7603089F071
:1017B00020E0219320E021932AE02193613049F039
:1017C0006A9525E0219325E0219325E021936A95F0
:1017D000C1F7000020C0619506E0061B41F020E043
:1017E000219320E0219320E021930A95C1F76030F6
:1017F00089F020E021932AE0219320E021936130B9
:1018000049F06A9525E0219325E0219325E0219375
:101810006A95C1F7000060910C01603022F40FEF6F
:10182000009311016195633038F42AE0219320E0A0
:10183000219320E021930FC0653038F42EE02193EE
:1018400029E1219320E0219306C020E021932AE0A2
:10185000219320E02193009111010F3F21F4619524
:1018600000270093110100006091220160930C0198
:10187000603022F40FEF009311016195633038F46A
:101880002AE0219320E0219320E021930FC06530CE
:1018900038F42EE0219329E1219320E0219306C022
:1018A00020E021932AE0219320E02193009111016F
:1018B0000F3F21F461950027009311010000603073
:1018C00002F106E0061B41F020E0219320E0219385
:1018D00020E021930A95C1F7603089F020E0219340
:1018E00020E021932AE02193613049F06A9525E0B8
:1018F000219325E0219325E021936A95C1F700000B
:1019000020C0619506E0061B41F020E0219320E015
:10191000219320E021930A95C1F7603089F020E0FF
:1019200021932AE0219320E02193613049F06A95C8
:1019300025E0219325E0219325E021936A95C1F7C5
:10194000000060910C01603022F40FEF0093110150
:101950006195633038F42AE0219320E0219320E060
:1019600021930FC0653038F42EE0219329E12193B3
:1019700020E0219306C020E021932AE0219320E07B
:101980002193009111010F3F21F4619500270093ED
:10199000110100006091230160930C01603022F47A
:1019A0000FEF009311016195633038F42AE0219321
:1019B00020E0219320E021930FC0653038F42EE021
:1019C000219329E1219320E0219306C020E0219377
:1019D0002AE0219320E02193009111010F3F21F48F
:1019E00061950027009311010000603002F106E0CC
:1019F000061B41F020E0219320E0219320E0219379
:101A00000A95C1F7603089F020E0219320E021930E
:101A10002AE02193613049F06A9525E0219325E081
:101A2000219325E021936A95C1F7000020C06195BC
:101A300006E0061B41F020E0219320E0219320E006
:101A400021930A95C1F7603089F020E021932AE0C4
:101A5000219320E02193613049F06A9525E021939C
:101A600025E0219325E021936A95C1F7000060915C
:101A70000C01603022F40FEF009311016195633087
:101A800038F42AE0219320E0219320E021930FC035
:101A9000653038F42EE0219329E1219320E0219351
:101AA00006C020E021932AE0219320E021930091B9
:101AB00011010F3F21F461950027009311010000EF
:101AC0006091240160930C01603022F40FEF0093C9
:101AD00011016195633038F42AE0219320E02193CD
:101AE00020E021930FC0653038F42EE0219329E1E6
:101AF000219320E0219306C020E021932AE0219346
:101B000020E02193009111010F3F21F461950027FE
:101B1000009311010000603002F106E0061B41F065
:101B200020E0219320E0219320E021930A95C1F742
:101B3000603089F020E0219320E021932AE0219376
:101B4000613049F06A9525E0219325E0219325E055
:101B500021936A95C1F7000020C0619506E0061B3D
:101B600041F020E0219320E0219320E021930A9589
:101B7000C1F7603089F020E021932AE0219320E032
:101B80002193613049F06A9525E0219325E0219366
:101B900025E021936A95C1F7000060910C01603047
:101BA00022F40FEF009311016195633038F42AE0BD
:101BB000219320E0219320E021930FC0653038F479
:101BC0002EE0219329E1219320E0219306C020E01B
:101BD00021932AE0219320E02193009111010F3FEE
:101BE00021F461950027009311010000E0E0F4E08A
:101BF00000E4002E219131914191F894A8D8789475
:0A1C00000A94C1F7D5D80C94C5086A
:00000001FF
